:100000000C9485000C94A2000C94A2000C94A20005
:100010000C94A2000C94A2000C94A2000C94C704AF
:100020000C94A2000C94A2000C9446040C94A20020
:100030000C94A2000C94A2000C94A2000C94A200B8
:100040000C94A2000C94A2000C94A2000C94A200A8
:100050000C94A2000C94A2000C94A2000C94A20098
:100060000C94A2000C94A200AF00EE00EE00EE0093
:10007000EE00EE00EE00EE00B600EE00EE00EE0048
:10008000EE00EE00EE00EE00BD00EE00EE00EE0031
:10009000EE00EE00EE00EE00C400EE00EE00EE001A
:1000A000EE00EE00EE00EE00CB00EE00EE00EE0003
:1000B000EE00EE00EE00EE00EE00EE00EE00EE00D0
:1000C000EE00EE00EE00EE00EE00EE00EE00EE00C0
:1000D000EE00EE00EE00EE00D200EE00EE00EE00CC
:1000E000EE00EE00EE00EE00D900EE00EE00EE00B5
:1000F000EE00EE00EE00EE00E000EE00EE00EE009E
:10010000EE00EE00EE00EE00E70011241FBECFEF80
:10011000D8E0DEBFCDBF11E0A0E0B1E0ECEBF4E150
:1001200002C005900D92AC31B107D9F721E0ACE1E6
:10013000B1E001C01D92A834B207E1F70E94170395
:100140000C945C0A0C94000090E0FC013897E135B7
:10015000F10508F043C0EC5CFF4F0C944707809119
:10016000B900887F8830E1F581E008958091B90079
:10017000887F8031B9F581E008958091B900887F4A
:10018000883191F581E008958091B900887F8032AF
:1001900069F581E008958091B900887F883241F542
:1001A00081E008958091B900887F803419F581E05D
:1001B00008958091B900887F8834F1F481E0089532
:1001C0008091B900887F8035C9F481E008958091DD
:1001D000B900887F8835A1F481E0089580E0089512
:1001E00080E0089580E0089580E0089580E008951B
:1001F00080E0089580E0089580E0089580E008950B
:1002000080E008959B01AC0184E08093BC00E9EBA1
:10021000F0E0808181608083A8EEB3E00E944D070A
:100220009B01AC0160E074E284EF90E00E9425073E
:10023000DA01C9014097A109B109689412F8B6958D
:10024000A795979587951694D1F78093B800089550
:1002500084EA8093BC008091BC008823E4F7089571
:10026000613061F4880F81608093BB0084E88093E3
:10027000BC008091BC008823E4F70895880F809328
:10028000BB0084E88093BC008091BC008823E4F725
:1002900008958093BB0084E88093BC008091BC00EB
:1002A0008823E4F7089584E98093BC00089590E0E2
:1002B00002C0959587956A95E2F780FF02C081E0BC
:1002C000089580E00895CF93C82F0E94280188E008
:1002D0000E94A400811103C085B1816085B960E0EE
:1002E00087E20E94300188E10E94A400811103C0CE
:1002F00085B1816085B98C2F0E94490188E20E94F6
:10030000A400811103C085B1816085B90E945301A9
:100310008DEE92E00197F1F700C00000CF910895B3
:100320008091440190E09C01220F331F220F331F64
:1003300090913F01892F90E0880F991F822BE091C7
:100340003E018E2B9091450120E1929FF0011124F6
:100350008E2B9091410140E2949FB0011124862B95
:100360009091400120E4929FA0011124842B909150
:10037000430140E8949F90011124822B2091420177
:1003800030E0220F331F220F331F220F331F822B27
:100390000895CF93C82F67E00E945701882321F06A
:1003A00081E08093430102C01092430166E08C2FEC
:1003B0000E945701882321F081E08093400102C010
:1003C0001092400165E08C2F0E945701882321F094
:1003D00081E08093410102C01092410164E08C2FC2
:1003E0000E945701882321F081E08093450102C0DB
:1003F00010924501109244010E9490010E946301F5
:1004000081E0809344010E9490010E946301109258
:1004100044010E9490010E946301CF910895CF93FF
:10042000C82F63E00E945701882321F081E0809368
:10043000430102C01092430162E08C2F0E945701D9
:10044000882321F081E08093400102C01092400196
:1004500061E08C2F0E945701882321F081E0809376
:10046000410102C01092410160E08C2F0E945701AF
:10047000882321F081E08093450102C0109245015C
:10048000109244010E9490010E94630181E08093D8
:1004900044010E9490010E946301109244010E9455
:1004A00090010E946301CF910895CF93DF93EC01F7
:1004B00081E080933E0110923F01109244018091AF
:1004C00000018093420105C00E94C90189910E94E8
:1004D0000F0288818111F8CFDF91CF910895CF93DA
:1004E000C62F882321F081E080933E0102C0109244
:1004F0003E0110923F0110924401809100018093CF
:1005000042018C2F0E94C9018C2F0E940F02CF91B3
:10051000089563E080E00E946F0283EC99E0019708
:10052000F1F700C0000063E080E00E946F0283ECFE
:1005300099E00197F1F700C0000063E080E00E94BD
:100540006F0283EC99E00197F1F700C0000062E0D0
:1005500080E00E946F0283EC99E00197F1F700C000
:10056000000062E080E00E946F0283EC99E0019756
:10057000F1F700C0000061E080E00E946F0283ECB0
:1005800099E00197F1F700C000006CE080E00E9464
:100590006F0283EC99E00197F1F700C0000061E081
:1005A00080E00E946F0283EC99E00197F1F700C0B0
:1005B000000066E080E00E946F0283EC99E0019702
:1005C000F1F700C000000895633031F0643031F07D
:1005D000623031F060E005C064E103C064E501C051
:1005E00060E4680F6150606880E00E946F020895C7
:1005F00061E080E00E946F0289EF90E00197F1F7DF
:1006000000C00000089580E280936F0084EC809326
:100610008100E6E4F1E010821182089582E087BB58
:10062000809370008093B0008093B10008958FEFA5
:1006300087B918B882E084B983E085B983E18093F3
:10064000B30087E690E00E94FF0464E670E080E07B
:1006500090E00E9402010E9489020E94F80281E05B
:1006600091E00E9455020E94F8020E9403030E943A
:100670000E03789480914601823009F0F6C0F89418
:1006800020912E0130912F01809130019091310104
:1006900082179307E8F460912E0170912F018091E9
:1006A000300190913101681B790B80E090E00E944D
:1006B0002A0620E034E244E757E40E94890560936B
:1006C0003A0170933B0180933C0190933D0126C019
:1006D00020913001309131018FEF9FEFA0E0B0E029
:1006E000821B930BA109B10920912E0130912F019A
:1006F000BC01CD01620F731F811D911D0E942C064C
:1007000020E034E244E757E40E94890560933A010F
:1007100070933B0180933C0190933D0160913A01BD
:1007200070913B0180913C0190913D0120E034E2C9
:1007300044E759E40E94B80660933A0170933B0184
:1007400080933C0190933D0160913A0170913B018F
:1007500080913C0190913D010E94FB0570932D0119
:1007600060932C0160912C0170912D0180E090E04C
:100770000E942A0620E030E044E052E40E94B806DD
:1007800020E030E04AEF54E40E948905609336018E
:10079000709337018093380190933901609136014D
:1007A0007091370180913801909139010E94FB05C9
:1007B0007093350160933401C0903601D0903701B9
:1007C000E0903801F0903901609134017091350169
:1007D00080E090E00E942A069B01AC01C701B601AF
:1007E0000E941C0520E030E04AE754E40E94B8066D
:1007F0000E94FB05709333016093320178948091DD
:100800003201909133019F938F938CE091E09F93FD
:100810008F938CE191E09F938F930E947207809158
:100820003401909135019F938F9380E191E09F93E4
:100830008F93C3E2D1E0DF93CF930E9472070990B8
:100840000020E9F721978EE290E0998388836CE19C
:1008500071E083E291E00E9467078DB79EB70C9626
:100860000FB6F8949EBF0FBE8DBF61E081E00E947D
:10087000E40283E191E00E94550283E291E00E944C
:10088000550289E191E00E945502F4CE1F920F9229
:100890000FB60F9211242F933F938F939F93EF9353
:1008A000FF93F89480914701813021F120F082304C
:1008B00009F441C060C08091860090E090933101BE
:1008C000809330018091870090E0982F88272091B5
:1008D000300130913101822B932B90933101809321
:1008E0003001E1E8F0E080818F7B808382E08093BB
:1008F000470141C08091860090E090933101809340
:1009000030018091870020E0382F80913001909154
:100910003101822B932B9093310180933001E1E8D8
:10092000F0E080818F7B8083E6E4F1E081E08083EA
:1009300082E0818320C08091860090E090932F0117
:1009400080932E018091870020E0382F80912E0126
:1009500090912F01822B932B90932F0180932E0146
:10096000E1E8F0E0808180648083E6E4F1E082E009
:10097000808381E081837894FF91EF919F918F91A3
:100980003F912F910F900FBE0F901F9018951F92BF
:100990000F920FB60F9211242F938F939F93F89479
:1009A00080912A0190912B01019690932B018093C5
:1009B0002A0180912A0190912B01019719F485B1A8
:1009C000826085B980912A0190912B01029719F4D8
:1009D00085B18D7F85B980912A0190912B018C3B47
:1009E000924021F410922B0110922A0178949F9149
:1009F0008F912F910F900FBE0F901F901895CF934E
:100A0000DF9325EC30E0F9011082C4ECD0E01882CD
:100A1000A1ECB0E01C9242EC50E0FA01108210927E
:100A2000C600F9011082888388E08C9386E0FA0181
:100A30008083DF91CF9108955058BB27AA270E9449
:100A400034050C947E060E94700638F00E947706EA
:100A500020F039F49F3F19F426F40C946D060EF43F
:100A6000E095E7FB0C946706E92F0E948F0658F388
:100A7000BA17620773078407950720F079F4A6F583
:100A80000C94B1060EF4E0950B2EBA2FA02D0B019D
:100A9000B90190010C01CA01A0011124FF27591BC3
:100AA00099F0593F50F4503E68F11A16F040A22FC9
:100AB000232F342F4427585FF3CF4695379527953A
:100AC000A795F0405395C9F77EF41F16BA0B620B39
:100AD000730B840BBAF09150A1F0FF0FBB1F661F80
:100AE000771F881FC2F70EC0BA0F621F731F841FC3
:100AF00048F4879577956795B795F7959E3F08F0E9
:100B0000B0CF9395880F08F09927EE0F97958795AA
:100B100008950E949D050C947E060E94770658F069
:100B20000E94700640F029F45F3F29F00C9467069C
:100B300051110C94B2060C946D060E948F0668F356
:100B40009923B1F3552391F3951B550BBB27AA2786
:100B500062177307840738F09F5F5F4F220F331FC0
:100B6000441FAA1FA9F335D00E2E3AF0E0E832D088
:100B700091505040E695001CCAF72BD0FE2F29D08B
:100B8000660F771F881FBB1F261737074807AB075D
:100B9000B0E809F0BB0B802DBF01FF2793585F4FD2
:100BA0003AF09E3F510578F00C9467060C94B2061B
:100BB0005F3FE4F3983ED4F3869577956795B795B4
:100BC000F7959F5FC9F7880F911D9695879597F9BF
:100BD0000895E1E0660F771F881FBB1F6217730738
:100BE0008407BA0720F0621B730B840BBA0BEE1F4D
:100BF00088F7E09508950E94970688F09F5798F02F
:100C0000B92F9927B751B0F0E1F0660F771F881F11
:100C1000991F1AF0BA95C9F714C0B13091F00E942B
:100C2000B106B1E008950C94B106672F782F88279C
:100C3000B85F39F0B93FCCF3869577956795B39552
:100C4000D9F73EF490958095709561957F4F8F4FC1
:100C50009F4F0895E89409C097FB3EF490958095C6
:100C6000709561957F4F8F4F9F4F9923A9F0F92F72
:100C700096E9BB279395F695879577956795B795F0
:100C8000F111F8CFFAF4BB0F11F460FF1BC06F5FD6
:100C90007F4F8F4F9F4F16C0882311F096E911C0E8
:100CA000772321F09EE8872F762F05C0662371F009
:100CB00096E8862F70E060E02AF09A95660F771F1D
:100CC000881FDAF7880F9695879597F9089597F911
:100CD0009F6780E870E060E008959FEF80EC0895E2
:100CE00000240A941616170618060906089500240B
:100CF0000A9412161306140605060895092E039485
:100D0000000C11F4882352F0BB0F40F4BF2B11F4F8
:100D100060FF04C06F5F7F4F8F4F9F4F089557FD57
:100D20009058440F551F59F05F3F71F04795880F59
:100D300097FB991F61F09F3F79F0879508951216F0
:100D400013061406551FF2CF4695F1DF08C016169C
:100D500017061806991FF1CF86957105610508944D
:100D60000895E894BB2766277727CB0197F9089564
:100D70000E94CB060C947E060E94700638F00E94FA
:100D8000770620F0952311F00C9467060C946D06FD
:100D900011240C94B2060E948F0670F3959FC1F344
:100DA000950F50E0551F629FF001729FBB27F00D19
:100DB000B11D639FAA27F00DB11DAA1F649F66276E
:100DC000B00DA11D661F829F2227B00DA11D621FBD
:100DD000739FB00DA11D621F839FA00D611D221F77
:100DE000749F3327A00D611D231F849F600D211D5B
:100DF000822F762F6A2F11249F5750409AF0F1F0DE
:100E000088234AF0EE0FFF1FBB1F661F771F881F46
:100E100091505040A9F79E3F510580F00C94670611
:100E20000C94B2065F3FE4F3983ED4F38695779531
:100E30006795B795F795E7959F5FC1F7FE2B880FEC
:100E4000911D9695879597F90895A1E21A2EAA1BF0
:100E5000BB1BFD010DC0AA1FBB1FEE1FFF1FA2176A
:100E6000B307E407F50720F0A21BB30BE40BF50B67
:100E7000661F771F881F991F1A9469F760957095F0
:100E8000809590959B01AC01BD01CF010895EE0FB7
:100E9000FF1F0590F491E02D09940E945807A59F2B
:100EA000900DB49F900DA49F800D911D1124089565
:100EB000A29FB001B39FC001A39F700D811D11249B
:100EC000911DB29F700D811D1124911D0895FB018C
:100ED000DC010D900020E9F7119701900D920020A0
:100EE000E1F70895AEE0B0E0E8E7F7E00C94330AEC
:100EF0000D891E8986E08C831A8309838FEF9FE713
:100F00009E838D83AE01475E5F4F6F89788DCE01E2
:100F100001960E949407EF81F885E00FF11F10827F
:100F20002E96E4E00C944F0AABE0B0E0EAE9F7E07B
:100F30000C94250A6C017B018A01FC011782168240
:100F4000838181FFCCC1CE0101963C01F6019381E2
:100F5000F70193FD859193FF81917F01882309F427
:100F6000BAC1853239F493FD859193FF81917F0158
:100F7000853229F4B60190E00E948B09E7CF912CCD
:100F8000212C312CFFE1F315D8F08B3279F038F4B5
:100F9000803279F08332A1F4232D20611DC08D327F
:100FA00061F0803369F4232D216016C0832D8260A7
:100FB000382EE32DE4603E2E2AC0F32DF8601DC0CC
:100FC00037FC2DC020ED280F2A3040F08E32B9F4C6
:100FD00036FC81C1232D2064322E19C036FE06C096
:100FE0008AE0989E200D1124922E11C0EAE02E9ED8
:100FF000200D1124222EF32DF0623F2E08C08C36D6
:1010000021F4832D8068382E02C0883641F4F70120
:1010100093FD859193FF81917F018111B3CF982F2B
:101020009F7D9554933028F40C5F1F4F9FE3998365
:101030000DC0833631F0833771F0833509F059C024
:1010400021C0F801808189830E5F1F4F882483941B
:10105000912C530113C02801F2E04F0E511CF801EE
:10106000A080B18036FE03C0692D70E002C06FEF32
:101070007FEFC5010E9480094C018201F32DFF77AB
:101080003F2E16C0280122E0420E511CF801A0801C
:10109000B18036FE03C0692D70E002C06FEF7FEFB4
:1010A000C5010E9475094C01F32DF0683F2E8201A5
:1010B00033FC1BC0822D90E088169906B0F4B6016F
:1010C00080E290E00E948B092A94F4CFF50137FC6E
:1010D000859137FE81915F01B60190E00E948B09F6
:1010E00021102A9421E0821A91088114910471F749
:1010F000E8C0843611F0893641F5F80137FE07C0A3
:1011000060817181828193810C5F1F4F08C0608173
:101110007181072E000C880B990B0E5F1F4FF32D6A
:10112000FF763F2E97FF09C0909580957095619549
:101130007F4F8F4F9F4FF0683F2E2AE030E0A30192
:101140000E94C709882E861845C0853731F4232DA3
:101150002F7EB22E2AE030E025C0932D997FB92E44
:101160008F36C1F018F4883579F0B5C0803719F0A2
:10117000883721F0B0C0E92FE061BE2EB4FE0DC06B
:10118000FB2DF460BF2E09C034FE0AC0292F266053
:10119000B22E06C028E030E005C020E130E002C0F9
:1011A00020E132E0F801B7FE07C0608171818281E1
:1011B00093810C5F1F4F06C06081718180E090E0D9
:1011C0000E5F1F4FA3010E94C709882E8618FB2DB2
:1011D000FF773F2E36FE0DC0232D2E7FA22E8914C1
:1011E00058F434FE0BC032FC09C0832D8E7EA82E2D
:1011F00005C0B82CA32C03C0B82C01C0B92CA4FE88
:101200000FC0FE01E80DF11D8081803321F49A2D7D
:10121000997EA92E09C0A2FE06C0B394B39404C05F
:101220008A2D867809F0B394A3FC11C0A0FE06C0F5
:10123000B21488F4280C922C9B180EC0B21460F4DF
:10124000B60180E290E00E948B09B394F7CFB2140C
:1012500018F42B1802C0982C212CA4FE10C0B60143
:1012600080E390E00E948B09A2FE17C0A1FC03C09E
:1012700088E790E002C088E590E0B6010CC08A2DB6
:10128000867859F0A1FE02C08BE201C080E2A7FC83
:101290008DE2B60190E00E948B09891438F4B60102
:1012A00080E390E00E948B099A94F7CF8A94F3012F
:1012B000E80DF11D8081B60190E00E948B0981103C
:1012C000F5CF222009F442CEB60180E290E00E94E0
:1012D0008B092A94F6CFF6018681978102C08FEFA1
:1012E0009FEF2B96E2E10C94410AFC0105906150BE
:1012F00070400110D8F7809590958E0F9F1F08952C
:10130000FC016150704001900110D8F780959095D4
:101310008E0F9F1F08950F931F93CF93DF93FB01B1
:10132000238121FD03C08FEF9FEF2CC022FF16C049
:1013300046815781248135814217530744F4A081A7
:10134000B1819D012F5F3F4F318320838C93268194
:1013500037812F5F3F4F3783268314C08B01EC0109
:10136000FB010084F185E02D0995892BE1F6D80178
:1013700016968D919C911797019617969C938E9334
:101380001697CE01DF91CF911F910F910895FA0129
:10139000AA27283051F1203181F1E8946F936E7FB4
:1013A0006E5F7F4F8F4F9F4FAF4FB1E03ED0B4E0A5
:1013B0003CD0670F781F891F9A1FA11D680F791FE6
:1013C0008A1F911DA11D6A0F711D811D911DA11DF7
:1013D00020D009F468943F912AE0269F1124301907
:1013E000305D3193DEF6CF010895462F4770405DA2
:1013F0004193B3E00FD0C9F7F6CF462F4F70405D51
:101400004A3318F0495D31FD4052419302D0A9F7AB
:10141000EACFB4E0A6959795879577956795BA95A5
:10142000C9F700976105710508959B01AC010A2E6B
:1014300006945795479537952795BA95C9F7620F42
:10144000731F841F951FA01D08952F923F924F92E6
:101450005F926F927F928F929F92AF92BF92CF9244
:10146000DF92EF92FF920F931F93CF93DF93CDB74D
:10147000DEB7CA1BDB0B0FB6F894DEBF0FBECDBFC5
:1014800009942A88398848885F846E847D848C8496
:101490009B84AA84B984C884DF80EE80FD800C819F
:1014A0001B81AA81B981CE0FD11D0FB6F894DEBF82
:0C14B0000FBECDBFED010895F894FFCFF2
:1014BC000144697374616E63653A200025317500CF
:0C14CC00257500446973743A00636D00DC
:00000001FF
